:020000040800F2
:1000000018140020C90100085D210008ED1D00083A
:1000100059210008E90D00080B310008000000001C
:10002000000000000000000000000000E9280008B7
:10003000A51900080000000095260008292C0008DA
:10004000E3010008E3010008E3010008E301000800
:10005000E3010008E3010008E3010008E3010008F0
:10006000E3010008E3010008A7190008E301000804
:10007000E3010008E3010008E3010008E3010008D0
:10008000E3010008E3010008E3010008E3010008C0
:10009000E3010008E3010008E3010008E3010008B0
:1000A000E3010008E3010008E3010008E3010008A0
:1000B000E3010008E3010008E3010008E301000890
:1000C000E3010008E3010008E3010008E301000880
:1000D000E3010008E3010008E3010008E301000870
:1000E000E3010008E3010008E301000800F002F862
:1000F00000F05AF80AA090E8000C82448344AAF168
:100100000107DA4501D100F04FF8AFF2090EBAE865
:100110000F0013F0010F18BFFB1A43F0010318473B
:1001200050850000708500000A444FF0000C10F864
:10013000013B13F0070408BF10F8014B1D1108BF65
:1001400010F8015B641E05D010F8016B641E01F805
:10015000016BF9D113F0080F1EBF10F8014BAD1C55
:100160000C1B09D16D1E58BF01F801CBFAD505E073
:1001700014F8016B01F8016B6D1EF9D59142D6D3CD
:10018000704700000023002400250026103A28BFF5
:1001900078C1FBD8520728BF30C148BF0B607047F9
:1001A0001FB51FBD10B510BD00F076F81146FFF762
:1001B000F7FF05F0F9FA00F094F803B4FFF7F2FF47
:1001C00003BC00F095F80000094880470948004743
:1001D000FEE7FEE7FEE7FEE7FEE7FEE7FEE7FEE7F7
:1001E000FEE7FEE704480549054A064B7047000054
:1001F000312C0008ED000008180E00201814002013
:10020000181000201810002010B5203AC0F00B8004
:10021000B1E81850203AA0E81850B1E81850A0E80A
:100220001850BFF4F5AF5FEA027C24BFB1E8185064
:10023000A0E8185044BF18C918C0BDE810405FEAD4
:10024000827C24BF51F8043B40F8043B08BF704750
:10025000D20728BF31F8023B48BF11F8012B28BF55
:1002600020F8023B48BF00F8012B704770477047E9
:10027000704710B500F008F8006810BD10B50446CE
:1002800000F002F8046010BD00487047B80D00206F
:1002900000487047B80D00207546FFF7F9FFAE46DD
:1002A00005006946534620F00700854618B020B582
:1002B000FFF798FFBDE820404FF000064FF0000721
:1002C0004FF000084FF0000B21F00701AC46ACE8FE
:1002D000C009ACE8C009ACE8C009ACE8C0098D466B
:1002E00070470446AFF300802046FFF766FF00002A
:1002F00001491820ABBEFEE726000200704700004F
:100300007FB50024AA222146641C47484254214656
:10031000641C425406222146641C42540022214699
:10032000641C42549DF801202146641C42549DF8EF
:1003300000202146641C42549DF805202146641C7F
:1003400042549DF804202046611CCCB236490A5420
:100350009DF809202046611CCCB233490A549DF80F
:1003600008202046611CCCB22F490A549DF80D206C
:100370002046611CCCB22C490A549DF80C20214621
:10038000601CC4B2284842549DF821202046611CBC
:10039000CCB225490A549DF820202046611CCCB2DD
:1003A00021490A549DF825202046611CCCB21E49E3
:1003B0000A549DF824202046611CCCB21A490A54E4
:1003C0009DF829202046611CCCB217490A549DF89B
:1003D00028202046611CCCB213490A549DF82D20D8
:1003E0002046611CCCB210490A549DF82C202046AE
:1003F000611CCCB20C490A54201FC8700025002093
:1004000005E00949095C2944CDB2411CC8B2A042AB
:10041000F7DB2046611CCCB203490D54214602484B
:1004200002F086FA7FBD0000630800202DE9FC5F22
:1004300005460E4617469846DDE90CAB0024AA2275
:100440002146641C7A4842542146641C425405F1FA
:100450000F00C2B22146641C754842540022214656
:10046000641C42547349304607F08AFD009007F03F
:10047000BBFC00B201909DF805202146641C6C482D
:1004800042549DF804202146641C42546949384670
:1004900007F076FD009007F0A7FC00B201909DF8F0
:1004A00005202146641C624842549DF804202046E1
:1004B000611CCCB25E490A545E49404607F060FDBB
:1004C000009007F091FC00B201909DF805202046B5
:1004D000611CCCB256490A549DF804202046611C88
:1004E000CCB253490A545349504607F049FD009095
:1004F00007F07AFC00B201909DF805202046611CAF
:10050000CCB24B490A549DF804202046611CCCB261
:1005100047490A544749584607F032FD009007F012
:1005200063FC00B201909DF805202046611CCCB20E
:100530003F490A549DF804202046611CCCB23C4936
:100540000A543C490E9807F01BFD009007F04CFC44
:1005500000B201909DF805202046611CCCB23449C0
:100560000A549DF804202046611CCCB230490A543C
:1005700030490F9807F004FD009007F035FC00B2F9
:1005800001909DF805202146601CC4B228484254C1
:100590009DF804202046611CCCB225490A54254907
:1005A000109807F0EDFC009007F01EFC00B20190DF
:1005B0009DF805202046611CCCB21D490A549DF8C7
:1005C00004202046611CCCB219490A5419491198DB
:1005D00007F0D6FC009007F007FC00B201909DF8F0
:1005E00005202046611CCCB211490A549DF8042014
:1005F0002046611CCCB20E490A54201FC8704FF02F
:100600000009002006E00A49095C494401F0FF099D
:10061000411CC8B2A042F6DB2046611CCCB20449A2
:1006200001F800902146024802F082F9BDE8FC9FE3
:100630006308002000007A44F8B505460E46002401
:10064000AA222146641C1E4842542146641C42547E
:1006500005222146641C425400222146641C425457
:1006600000959DF801202146641C42549DF800200D
:100670002146641C425400969DF801202146641CCA
:1006800042549DF800202046611CCCB20C490A540B
:10069000201FC8700027002005E00949095C394483
:1006A000CFB2411CC8B2A042F7DB2046611CCCB2DD
:1006B00003490F542146024802F03AF9F8BD000000
:1006C000630800207FB50024AA222146641C5548F7
:1006D00042542146641C425403222146641C425465
:1006E00000222146641C42549DF801202146641CCE
:1006F00042549DF800202146641C42549DF8052078
:100700002146641C42549DF804202046611CCCB252
:1007100044490A549DF809202046611CCCB2414945
:100720000A549DF808202046611CCCB23D490A5469
:100730009DF80D202046611CCCB23A490A549DF820
:100740000C202046611CCCB236490A549DF8212069
:100750002046611CCCB233490A549DF82020204623
:10076000611CCCB22F490A549DF825202046611CFB
:10077000CCB22C490A549DF824202046611CCCB2EE
:1007800028490A549DF829202046611CCCB22549ED
:100790000A549DF828202046611CCCB221490A54F5
:1007A0009DF82D202046611CCCB21E490A549DF8AC
:1007B0002C202046611CCCB21A490A549DF83120E5
:1007C0002046611CCCB217490A549DF830202046BF
:1007D000611CCCB213490A549DF835202046611C97
:1007E000CCB210490A549DF834202146601CC4B292
:1007F0000C484254201F0B49C8700025002005E01A
:100800000849095C2944CDB2411CC8B2A042F7DBBB
:100810002046611CCCB203490D542146014802F028
:1008200087F87FBD630800202DE9F84F05460E4686
:1008300017469846DDE90AAB0024AA222146641C2B
:100840005F4842542146641C425402222146641CE3
:10085000425400222146641C425400959DF8012018
:100860002146641C42549DF800202146641C4254D9
:1008700000969DF801202146641C42549DF80020FA
:100880002046611CCCB24E490A5400979DF80120C5
:100890002046611CCCB24A490A549DF800202146EA
:1008A000601CC4B246484254CDF800809DF8012037
:1008B0002046611CCCB242490A549DF800202046D3
:1008C000611CCCB23E490A54CDF800A09DF801202D
:1008D0002046611CCCB23A490A549DF800202046BB
:1008E000611CCCB236490A54CDF800B09DF8012005
:1008F0002046611CCCB232490A549DF800202046A3
:10090000611CCCB22E490A540C9800909DF801202D
:100910002046611CCCB22A490A549DF8002020468A
:10092000611CCCB226490A540D9800909DF8012014
:100930002046611CCCB222490A549DF80020204672
:10094000611CCCB21E490A540E9800909DF80120FB
:100950002046611CCCB21A490A549DF8002020465A
:10096000611CCCB216490A54002000909DF8012069
:100970002046611CCCB212490A549DF80020204642
:10098000611CCCB20E490A54201FC8704FF00009F8
:10099000002006E00A49095C494401F0FF09411CB6
:1009A000C8B2A042F6DB2046611CCCB2044901F873
:1009B00000902146024801F0BBFFBDE8F88F00001F
:1009C0006308002073B50024AA222146641C244831
:1009D00042542146641C425407222146641C42545E
:1009E00000222146641C42549DF803202146641CC9
:1009F00042549DF802202146641C42549DF8012077
:100A00002146641C42549DF800202046611CCCB253
:100A100013490A549DF805202046611CCCB21049A8
:100A20000A549DF804202046611CCCB20C490A549B
:100A3000201FC8700025002005E00949095C2944F1
:100A4000CDB2411CC8B2A042F7DB2046611CCCB23B
:100A500003490D542146024801F06AFF7CBD0000A5
:100A6000630800202DE9F843074688461546002410
:100A7000AA222146641C334842542146641C425435
:100A80000B222146641C425400222146641C42541D
:100A90002D49384607F074FA814607F0A5F900B2EF
:100AA00000909DF801202146641C264842549DF880
:100AB00000202146641C42544146234807F060FA56
:100AC000814607F091F900B200909DF8012021467F
:100AD000641C1C4842549DF800202146601CC4B28E
:100AE000184842542946184807F04AFA814607F048
:100AF0007BF900B200909DF801202046611CCCB229
:100B000010490A549DF800202046611CCCB20D49C2
:100B10000A54201FC8700026002005E00949095C1E
:100B20003144CEB2411CC8B2A042F7DB2046611C62
:100B3000CCB204490E542146024801F0F9FEBDE84A
:100B4000F883000063080020CDCCCC3D2DE9FE4F9A
:100B500081460D4616461F46DDE90CAB0024019781
:100B6000AA222146641C484842542146641C42542F
:100B700001222146641C425400222146641C425436
:100B80004249484607F0FCF9009007F02DF900B201
:100B900002909DF809202146641C3B4842549DF870
:100BA00008202146641C42543849284607F0E8F9D9
:100BB000009007F019F900B202909DF80920214633
:100BC000641C314842549DF808202146601CC4B280
:100BD0002D4842542D49304607F0D2F9009007F0D5
:100BE00003F900B202909DF809202046611CCCB2A6
:100BF00025490A549DF808202046611CCCB22249A0
:100C00000A549DF807202046611CCCB21E490A54A4
:100C10009DF806202046611CCCB21B490A549DF861
:100C200005202146601CC4B2174842549DF8042098
:100C30002046611CCCB214490A542046611CCCB237
:100C4000114901F800A02046611CCCB20E4901F800
:100C500000B0201FC8704FF00008002006E00A49CD
:100C6000095C414401F0FF08411CC8B2A042F6DB18
:100C70002046611CCCB2044901F80080214602489C
:100C800001F056FEBDE8FE8F630800200000C84258
:100C9000F8B50024AA222146641C2048425421466B
:100CA000641C4254F1222146641C42540022214615
:100CB000641C4254002616E0194951F8260007F03A
:100CC00093F800B200909DF801202046611CCCB240
:100CD00012490A549DF800202046611CCCB20F49ED
:100CE0000A54701CC6B20A2EE6DB201F0B49C870DE
:100CF0000025002005E00949095C2944CDB2411CCA
:100D0000C8B2A042F7DB2046611CCCB203490D54A7
:100D10002146024801F00CFEF8BD000063080020E7
:100D2000980800207FB505460024AA222146641CAD
:100D30002C4842542146641C425400222146641C23
:100D400042542146641C42542146641C45549DF87B
:100D500005202146641C42549DF804202146641C51
:100D600042549DF809202046611CCCB21D490A540A
:100D70009DF808202046611CCCB21A490A549DF8FF
:100D80000D202046611CCCB216490A549DF80C2057
:100D90002046611CCCB213490A549DF821202046FC
:100DA000611CCCB20F490A549DF820202046611CDA
:100DB000CCB20C490A54201FC8700026002005E060
:100DC0000849095C3144CEB2411CC8B2A042F7DBED
:100DD0002046611CCCB203490E542146014801F063
:100DE000A7FD7FBD6308002000BFFEE7044951F85E
:100DF000201048F68F621140014A42F820107047D7
:100E0000005C004070B504460025062C18D1184837
:100E10000068007800F07F00012811D114480068B4
:100E2000407968B9124800688078222801D1114DB4
:100E300010E00F480068807821280BD10E4D09E0A2
:100E40000B480068007800F07F00212802D1032CB5
:100E500000D10A4D0DB9022070BD054800688561BA
:100E600000210348006841820020A8470020F3E7E2
:100E700010060020D90E0008A90E0008BD0E0008BB
:100E800010B504460249204601F0BCFE10BD00002A
:100E9000C805002010B504460249204601F0B2FE04
:100EA00010BD0000C005002010B5044602492046D0
:100EB00001F0A8FE10BD0000D8050020014629B9A8
:100EC0000120034A12681082002070470148FCE7A5
:100ED000100600200006002010B5044602492046F6
:100EE00001F090FE10BD0000D005002070B5054651
:100EF00006480068C478042C01DD002070BD044859
:100F000000EBC401284601F07DFEF7E71006002043
:100F1000E00500200246002901DD02207047002A7A
:100F200001DD0220FAE70020F8E7000000B50246E4
:100F300006480068007800F07F00212804D10B2AC1
:100F400002D100F077F800BD0220FCE71006002077
:100F500010B500202A490968887229490968C872B1
:100F60002848C079264909684872002001F0EEFC43
:100F70004FF40071002001F0BBFD1021002001F0B2
:100F80008DFD1821002001F009FD5821002001F0FD
:100F900067FD0020FFF72AFF1B4890F82C10002067
:100FA00001F00EFD002001F049FD4FF4C061012069
:100FB00001F09EFD9821012001F0F0FC402101206C
:100FC00001F0FEFC4FF44051012001F01FFD4FF4F1
:100FD000C061022001F08CFD4FF48C71022001F001
:100FE0003FFD4021022001F04BFD2021022001F0B5
:100FF00055FD012005490860002001F0AFFC10BD3F
:1010000010060020388500086C050020040600202A
:1010100003480068807A10B10520024908607047D3
:1010200010060020040600200420014908607047D3
:101030000406002003480068C178034801600020CE
:10104000704700001006002000060020704770471F
:1010500010B500F0A7FE00200A490968887201F067
:101060001BFB0020084908604FF43F4007490880F7
:10107000084600880449091F0860002004490860E8
:1010800010BD000010060020445C00401A0600203D
:10109000040600202DE9F04387B0FA480078FA49A9
:1010A000097890FBF1F201FB1201F7480078401E2D
:1010B000814202D10120F5498870F2480078F44954
:1010C000097890FBF1F201FB1201F1480078401E13
:1010D000814202D10120ED49C870EA480078ED490B
:1010E000097890FBF1F201FB1201EA480078801EBA
:1010F000814202D10120E5498873E2480078E6493F
:10110000097890FBF1F201FB1201E3480078401EE0
:10111000814202D10120DD494870DA480078DF4978
:10112000097890FBF1F201FB1201DC480078401EC7
:10113000814202D10120D5498872D2480078D8492D
:10114000097890FBF1F201FB1201D5480078801E6E
:10115000814202D10120CD490873CA480078D149A3
:10116000097890FBF1F201FB1201CE480078801E55
:10117000814202D10120C5494873C2480078CA495A
:10118000097890FBF1F201FB1201C7480078C01EFC
:10119000814202D10120BD49C873BA480078C349D1
:1011A000097890FBF1F201FB1201C0480078C01EE3
:1011B000814204D1B548007C401CB4490874B14850
:1011C0000078401CC0B2AF490870C82801DD00207B
:1011D0000870AE48007858B10020AC4908704FF450
:1011E000C8736422114600900420FFF79BFD7FE145
:1011F000A6484078A0B10020A4494870AC480078C7
:1012000000F00100AA490978C1F38101A94BCDE999
:1012100000105A6D196DD86C0023FFF797FC67E139
:101220009A48C07B48B100209849C873A148002162
:10123000426E0846FFF716FC5AE19448807B28B1BD
:10124000002092498873FFF723FD51E18F48807891
:1012500078B300208D4988709749086B06F0C4FD6B
:1012600004B29549C86A06F0BFFD05B29249886A82
:1012700006F0BAFD06B29049486A06F0B5FD07B21D
:101280008D49086A06F0B0FD0FFA80F88A49C869EE
:1012900006F0AAFD0FFA80F90020CDE90140039085
:1012A00033463A464146009504904846FFF7BCFA5B
:1012B0001EE1FFE77548C078C0B100207349C870CF
:1012C0007E49C8687E4906F05BFE064606F0A8FD2A
:1012D00084B27C4948687A4906F052FE064606F018
:1012E00083FD05462146FFF76DFB01E16748807AE3
:1012F00048B30020654988720290039004900590DD
:101300007148408900F57A7080B26F49098901F50A
:101310007A7189B26C4CCDE90010648804F57A7456
:10132000A3B2694C248804F57A74A2B2664CE488AE
:1013300004F57A74A1B2644CA48804F57A74A0B25E
:10134000FFF7C0F9D4E05148007BA8B100204F4915
:1013500008730090019002905C4C0390E48DA3B25E
:101360005A4CA48DA2B2594C648DA1B2574C248D15
:10137000A0B2FEF7C5FFBBE04448407B40B100206F
:10138000424948734FF4E4717B20FFF755F9AFE011
:101390003E48007910B300203C4908714B48D0F812
:1013A0009810D0F88C00494AD2F88020474BD3F8E7
:1013B0009430CDE90232CDE904014448D0F88800E8
:1013C0004249C96FCDE900104048D0F89030D0F8BC
:1013D0008420816F0120FFF729F889E02B484079AC
:1013E00088B33B480078401CC0B2394908700A28CD
:1013F00002DC07B0BDE8F0830020354908702349BE
:1014000048713248D0F8BC20D0F8B0002F49D1F84C
:10141000A4102E4BD3F8B830CDE90231CDE9040247
:101420002A48D0F8AC002949D1F8A010CDE9001025
:101430002648D0F8B430D0F8A820D0F89C1002206C
:10144000FEF7F4FF54E0FFE71048807970B12048C0
:101450000078401CC0B21E4908700A2800DCC8E7AA
:1014600000201B4908700949887141E00748C0798C
:1014700080B317480078401CC0B2154908700A288C
:1014800029DCB6E7A4000020AA00002052080020B2
:10149000A7000020A5000020A6000020A800002032
:1014A000A9000020AD000020AB000020AC0000200F
:1014B00000000020080000200C0700200408002085
:1014C0000000C84280070020D00800202409002026
:1014D000AE00002005E00020074908700749C871E8
:1014E00006E00648007C022802D100200349087467
:1014F00001F024FE00BF7CE7AE000020520800206F
:101500002DE9F04104460D460026002704E0E05D89
:101510003044C6B2781CC7B2681EB842F7DC601906
:1015200010F8010CB04201D0BDE8F0812078AA2863
:1015300002D16078AF2800D0F6E7A07812287DD0DD
:101540000CDC032863D004DC01280FD0022846D12C
:1015500046E0102873D01128F9D11FE1133805286F
:101560003DD2DFE800F0FDFCFBFAF900207901280C
:1015700007D1F848007820F020002030F5490870A5
:101580002DE02079022807D1F248007820F02000D1
:101590002030F049087022E0207903280DD1ED4871
:1015A000007820F020002030EA4908700846407892
:1015B00020F00200801C487011E02079042807D137
:1015C000E448007820F080008030E249087006E0AE
:1015D0002079212802DB2079262800DD00BFDBE10D
:1015E0002079012807D1DC49087148718871C871D8
:1015F000087248720AE02079022807D02079A028D2
:1016000003D10120D449087000E000BFC4E1207973
:10161000617941EA0020D1498880A079E17941EAE5
:101620000020CE49C880207A617A41EA0020CB4967
:101630000880A07AE17A41EA002001E03AE11DE069
:10164000C6494880207B617B41EA0020C34908816C
:10165000A07BE17B41EA0020C0494881207C617C7D
:1016600041EA0020BD498881A07CE17C41EA00205C
:10167000BA49C881012004F087FE8DE12179090271
:1016800009B2627941EA020006F0EAFB8046B449F9
:1016900006F0B4FAB3498867A179090209B2E27980
:1016A00041EA020006F0DCFB8046AD4906F0A6FAEE
:1016B000AC49C1F88400217A090209B2627A41EA90
:1016C000020006F0CDFB8046A54906F097FAA54931
:1016D000C1F89000A17A090209B2E27A41EA020057
:1016E00006F0BEFB80469E4906F088FA9D49C86711
:1016F000217B090209B2627B41EA020006F0B0FBDD
:101700008046974906F07AFA9649C1F88800A17B8D
:10171000090209B2E27B41EA020006F0A1FB804621
:101720008F4906F06BFA8F49C1F89400217C0902B9
:1017300009B2627C41EA020006F092FB80468849C9
:1017400006F05CFA8749C1F88000A17C090209B261
:10175000E27C41EA020004E01DE11BE115E10FE13A
:1017600002E106F07DFB80467D4906F047FA7D499F
:10177000C1F88C00217D090209B2627D41EA0200B4
:1017800006F06EFB8046764906F038FA7549C1F8D6
:101790009800A078314601F0A9F8FDE0217909020E
:1017A00009B2627941EA020006F05AFB80466C49B0
:1017B00006F024FA6B49C1F89C00A179090209B22C
:1017C000E27941EA020006F04BFB8046644906F0EC
:1017D00015FA6449C1F8A800217A090209B2627AAF
:1017E00041EA020006F03CFB80465D4906F006FA3D
:1017F0005C49C1F8B400A17A090209B2E27A41EA6F
:10180000020006F02DFB8046554906F0F7F95549D0
:10181000C1F8A000217B090209B2627B41EA020003
:1018200006F01EFB80464E4906F0E8F94D49C1F826
:10183000AC00A17B090209B2E27B41EA020006F09A
:101840000FFB8046464906F0D9F94649C1F8B80071
:10185000217C090209B2627C41EA020006F000FB29
:1018600080463F4906F0CAF93E49C1F8A400A17C70
:10187000090209B2E27C41EA020006F0F1FA804670
:10188000374906F0BBF93749C1F8B000217D09029C
:1018900009B2627D41EA020006F0E2FA8046304970
:1018A00006F0ACF92F49C1F8BC00A078314601F030
:1018B0001DF871E02179090209B2627941EA02005A
:1018C00006F0CEFA8046264906F098F92549C1F877
:1018D000E000A179090209B2E27941EA020006F0CA
:1018E000BFFA80461E4906F089F91E49C1F8E40096
:1018F000A17A090209B2E27A41EA020006F0B0FADE
:101900008046174906F07AF91649C1F8E800217BAC
:10191000090209B2627B41EA020006F0A1FA8046A0
:101920000F4906F06BF90F49C1F8EC00A17B0902E1
:1019300009B2E27B41EA020006F092FA80460849C9
:1019400006F05CF90749C1F8F000A078314600F0D4
:10195000CDFF21E00000002052080020C008002038
:1019600000007A4424090020A078314600F0BEFF30
:101970000B48407820F010001030094948700BE007
:10198000A078314600F0B2FF06E0A078314600F0C2
:10199000ADFF01E000E000BF00BF00BFC4E50000F4
:1019A00000000020704710B5102000F00BF810B1B7
:1019B000102000F001F810BD0149086070470000D8
:1019C00014040140014600200022074B1B6803EA73
:1019D0000102054B14331B680B4202D00AB10120EF
:1019E00000E000207047000000040140002123496E
:1019F0008279002A3AD00A46126803689A430B4655
:101A00001A600A1D126803689A430B1D1A60027956
:101A100011440A6803681A430A60184A08321268B7
:101A200003689A43154B08331A601A1D126803683D
:101A30009A43124B0C331A604279102A0ED11A1FA6
:101A4000126803681A430D4B08331A601A1D126896
:101A500003681A43094B0C331A600DE007494279B9
:101A600011440A6803681A430A6005E002791144C8
:101A70000A6803689A430A60704700000004014046
:101A80000149C860704700000020024030B504469C
:101A900004254FF4302000F06FF80546042D17D1CF
:101AA0000C48006940F002000A4908610846446198
:101AB000006940F0400008614FF4302000F05CF80D
:101AC00005460448006941F6FD7108400149086176
:101AD000284630BD0020024004200B49C96811F09F
:101AE000010F01D001200EE00749C96811F0040F71
:101AF00001D0022007E00449C96811F0100F01D09D
:101B0000032000E0042070470020024003480069E1
:101B100040F0800001490861704700000020024049
:101B200070B504460D460426F00200F025F806467E
:101B3000042E11D10948006940F0010007490861ED
:101B40002580F00200F018F806460448006941F6C6
:101B5000FE71084001490861304670BD0020024016
:101B600002480349486003484860704723016745BD
:101B700000200240AB89EFCD00B502460423FFF7F9
:101B8000ABFF034603E0FFF7A7FF0346521E012BFE
:101B900001D1002AF7D102B90523184600BD10B5BE
:101BA000012000F05DFEFFF7DBFF3420FFF768FF48
:101BB000FFF7ACFF10BD000010B5FFF7D1FF6022AA
:101BC00004490548FEF720FBFFF7A0FF0248008804
:101BD00010BD000000FC0008240A002070B5FFF7CB
:101BE000BFFF60260A48FFF751FF00240AE00948BA
:101BF00030F81450064901EB44002946FFF790FFE6
:101C0000601CC4B2B442F2DBFFF780FF70BD00007D
:101C100000FC0008240A002030B500228B071C0FAE
:101C20000F2303FA04F20B4B8C1053F82430934328
:101C3000084C8D1044F8253023468C1053F824307E
:101C40008C07240F00FA04F42343024C8D1044F84F
:101C5000253030BD080001402DE9F0410246002545
:101C60000026002000230024002791F803C00CF078
:101C70000F0591F803C01CF0100F03D091F802C0BB
:101C80004CEA050591F800C0BCF1000F31D0146892
:101C900000202BE04FF0010C0CFA00F3B1F800C06B
:101CA0000CEA03069E4220D183004FF00F0C0CFA81
:101CB00003F7BC4305FA03FC4CEA040491F803C0A3
:101CC000BCF1280F06D14FF0010C0CFA00FCC2F851
:101CD00014C00AE091F803C0BCF1480F05D14FF0E1
:101CE000010C0CFA00FCC2F810C0401C0828D1D32B
:101CF0001460B1F800C0BCF1FF0F34DD546800205F
:101D00002EE000F1080C4FF0010808FA0CF3B1F8CE
:101D100000C00CEA03069E4221D183004FF00F0C55
:101D20000CFA03F7BC4305FA03FC4CEA040491F8EF
:101D300003C0BCF1280F05D100F1080C08FA0CF81B
:101D4000C2F8148091F803C0BCF1480F07D100F12C
:101D5000080C4FF0010808FA0CF8C2F81080401C7B
:101D60000828CED35460BDE8F0814161704701611D
:101D7000704700000EB50A48006800900848001D32
:101D800000680190064808300068029000984008FA
:101D9000019900EB9100029900EBD10080B20EBDD9
:101DA000E8F7FF1F10B50F4B18681B1D19681B1DA6
:101DB0001A68A8B10C4CA070030A2371030CA3711C
:101DC000030E2372A1720B0A23730B0CA3730B0E69
:101DD0002374A274130A2375130CA375130E2376B0
:101DE00010BD0000E8F7FF1F4C05002000BFFEE714
:101DF0002DE9F04F87B04FF00008C1466A480078DF
:101E000000046949497840EA012067498978084314
:101E1000664908606648007800046549497840EAE8
:101E20000120634989780843624908606248408913
:101E30005E490968A1EB00245F4880880004002205
:101E40005D4909894FEAE47CA1FB04AB02FB04B3C2
:101E500001FB0C334FEADA1141EA4361461842EBC9
:101E6000E317554840884FEAC0305349C9884FEAC4
:101E7000E47CA1FB04AB02FB04B301FB0C334FEA8F
:101E80001A2141EA0361401842EB2322CDE9020204
:101E90004948808941464FEAE47AA0FB04CB01FB24
:101EA00004B100FB0A114FEADC5040EA412B4FEA33
:101EB000E1504FF4FA6C1BEB0C0240F100011046AC
:101EC00005F0E9FF0590059800F0BAF80A213B48B3
:101ED00000F028F93A49059008603A49059806F05B
:101EE0001BF827D23749059806F00AFA824605F012
:101EF0007BFF05466D4305EB85004FEA600805EB67
:101F000085004FEAA0093049059806F005F811D27E
:101F10002E49059805F0FEFD824605F065FF054651
:101F20006D43072000FB058805EB450000EBC5006D
:101F300009EB6009B6EB080667EBE877DDE902011B
:101F4000B0EB090061EBE971CDE9020119484FF0EE
:101F500000030168DDE902C2A1FB0C0B03FB0CB31B
:101F600001FB02314FEA505040EAC1204FEA615272
:101F70000146891B62EB0700CDE900100846019974
:101F800005F089FF82464FF08E4105F037FE049040
:101F9000049800F041F80A210D4800F0C3F80D49FB
:101FA000086007B0BDE8F08F280100202001002064
:101FB0002B01002024010020940B0020A40B002002
:101FC000300100200000FA440080BBC40080BB4404
:101FD000CC0B00203401002008B50121082000F0BE
:101FE0002FFC4FF40070ADF8000003208DF80200C4
:101FF00010208DF8030069460648FFF72DFE00F01B
:102000007FF80A2002F094FD00F05CF800F084F8FC
:1020100008BD0000000C01400749084A127841F849
:10202000220006490978491C0A2291FBF2F302FBBF
:102030001311024A11707047CC0B00201D010020C3
:102040000749084A127841F8220006490978491CD4
:102050000A2291FBF2F302FB1311024A117070473E
:10206000A40B00201C01002010B50B48007848B9D3
:1020700000F014F800F050F8FFF7BAFE012006490E
:10208000087006E000F014F800F040F80020024963
:1020900008700148007810BD1E01002010B5034AE9
:1020A0000321002002F05EFC10BD00002B01002087
:1020B00010B5034A0321002002F054FC10BD0000BB
:1020C0002801002038B500200090002412E0A02153
:1020D00001EB4401C8B26A46022102F043FC9DF8BC
:1020E00001009DF8001040EA0120044921F8140085
:1020F000601CC4B2082CEADB002038BD940B002021
:1021000010B501211E2002F07DFC10BD10B501218B
:10211000482002F077FC10BD10B50121582002F0D4
:1021200071FC10BD2DE9F04106460C460027002544
:1021300006E056F82510384605F0ECFC07466D1C05
:10214000A542F6DB204605F08BFE80464146384628
:1021500005F054FDBDE8F08100BFFEE77047704711
:102160001CB505220E49302000F03EF905226946D3
:10217000102000F0E5F8002408E01DF804000849EC
:10218000095D884200D003E0601CC4B2052CF4DB7A
:1021900000BF052C01D000201CBD0120FCE7000081
:1021A0001001002070B5072000F0ECF8044614F090
:1021B000400F14D0602000F0E5F80546212D09DA23
:1021C0002A460D49612000F0BBF829460A48FFF76E
:1021D00097F903E0FF21E22000F026F900BF14F098
:1021E000040F03D0FF21E12000F01EF92146272033
:1021F00000F01AF970BD0000920A002038B50446BC
:102200000D460121082000F01BFB4FF40060ADF8E3
:10221000000001208DF8020010208DF803006946AF
:102220004448FFF719FD4FF48050ADF8000001203D
:102230008DF8020010208DF8030069463D48FFF735
:102240000BFD4FF400603B491431086005223A4908
:102250002A2000F0C9F805223849302000F0C4F8DF
:102260000121212000F0E0F80121222000F0DCF81B
:102270001A21242000F0D8F82946252000F0D4F8AF
:102280000F21262000F0D0F8012C08D1FF213120A9
:1022900000F0CAF80F21202000F0C6F841E0022C1F
:1022A00008D1FF21312000F0BFF80E21202000F0DE
:1022B000BBF836E0032C1AD1FF21E12000F0B4F87E
:1022C000FF21E22000F0B0F80F21202000F0ACF850
:1022D000502004F07BFB732004F078FB01213C20AC
:1022E00000F0A2F806213D2000F09EF819E00E2132
:1022F000202000F099F8FF21E12000F095F8FF215F
:10230000E22000F091F8502004F060FB732004F00C
:102310005DFB01213C2000F087F806213D2000F004
:1023200083F84FF40060034910310860FFF718FF8D
:1023300038BD0000000C01401501002010010020F4
:102340002DE9F04107460D4616464FF480500C49E2
:102350000860384604F03AFB8046002405E000207F
:1023600004F034FB2855601CC4B2B442F7DB4FF4D0
:1023700080500349091F08604046BDE8F081000015
:10238000140C014070B504464FF4805007490860B2
:10239000204604F01BFB002004F018FB05464FF418
:1023A00080500249091F0860284670BD140C014086
:1023B00070B504460D464FF40060094908600522D7
:1023C00008492A2000F010F82A462146A02000F0F3
:1023D0000BF84FF400600249091F086070BD00004F
:1023E000140C0140100100202DE9F04107460D4674
:1023F00016464FF480500B490860384604F0E6FA60
:102400008046002404E0285D04F0E0FA601CC4B2B9
:10241000B442F8DB4FF480500249091F086040467F
:10242000BDE8F081140C014070B505460C464FF430
:10243000805008490860284604F0C8FA064620463D
:1024400004F0C4FA4FF480500249091F0860304676
:1024500070BD0000140C014070B5002100230F2254
:10246000C4780CB3164C246804F4E064C4F5E0644A
:10247000210AC1F10403CA40447804FA03F18478C4
:102480001440214309010F4C0678A155047804F04B
:102490001F050124AC4005786D114FF0E02606EBD6
:1024A0008505C5F8004109E0047804F01F05012402
:1024B000AC40054D0678761145F8264070BD000009
:1024C0000CED00E000E400E080E100E0024901439F
:1024D000024A1160704700000000FA050CED00E0B0
:1024E00010B5FFF747FC02490880FFF777FB10BDE6
:1024F000240A002010B5FFF75FFB0446FFF73AFC03
:10250000844201D0FFF7ECFF00F002F810BD00009C
:10251000224823490A6CC260B1F844100182204964
:1025200046310A68C0F812208988C1821D481C49BA
:10253000D1E90123C968C0E91E23C0F880108030AA
:10254000174B10330ECB10300EC01C38144BD3E990
:1025500007215B6AC0E90813C261114B28330ECB17
:1025600028300EC034380E4B34330ECB34300EC00E
:102570000B48C06C0B49C1F8E0000948006DC1F878
:10258000E4000748406DC1F8E8000548806DC1F8D7
:10259000EC000348C06DC1F8F00070470C07002044
:1025A000240A00202409002010B52949294AD2E92B
:1025B00003305269C1E910308A6401F146002549AF
:1025C00012310A6802604A68426089688160463850
:1025D000214B78330ECB001D0EC01D491E488030A4
:1025E000D0E904238069C1E9042388611A48803056
:1025F000D0E90723406AC1E9072348620A46164822
:102600008030D0E90A31006BC2E90A31106311460B
:1026100011488030D0E90D23C06BC1E90D23C86398
:102620000D48D0F8E000C8640B48D0F8E400086515
:102630000948D0F8E80048650748D0F8EC008865FC
:102640000548D0F8F000C865FFF7C8FA10BD0000D3
:10265000240A00200C0700202409002010B50C4893
:102660004078C0F3001020B909484078C0F340100A
:1026700060B1FFF799FF0648407820F01000044948
:1026800048700846407820F02000487010BD0000D7
:10269000000000207047000010B5012000F0BEFCD3
:1026A00001240B48046000200A490880084600887D
:1026B000074908600020091D08604FF4E0500549F3
:1026C00008800846008802490860002010BD00000C
:1026D000405C00401A0600202DE9FE4F82464D4A1C
:1026E0009168906805F04CFC81464A4A51685068F0
:1026F00005F046FC8346494605F00CFA05464FF0C6
:10270000804105F03DFC06464FF07E5105F066FD28
:102710000746404AD168906805F032FC06463D4ABB
:102720005168106805F02CFC8146314605F0F2F93D
:1027300005464FF0804105F023FC8046394602F003
:10274000BBFA0446344905F01BFCCAF80400314AC0
:10275000D168506805F014FC2E4A01909168106809
:1027600005F00EFC0090019905F0CAFD4FF0804184
:10277000029005F005FC834605F0A0F9804601F0C3
:10278000E1FC06464FF00052244B04F0BDFE044627
:1027900004F080FCCAF800001E4A5168506805F039
:1027A000EFFB81461B4A1168106805F0E9FB834680
:1027B000494605F0AFF980464FF0804105F0E0FB57
:1027C00007464FF07E5105F09BFD0546114AD16842
:1027D000106805F0D5FB83460E48406880F000493C
:1027E0000C488168484605F0CBFB8046594605F009
:1027F00087FD07464FF0804105F0C2FB064629469B
:1028000002F05AFA0446044905F0BAFBCAF8080077
:10281000BDE8FE8F08000020DE2E6542DCA54C409E
:1028200029B1064AD2690243044BDA6104E0034A43
:10283000D2698243014BDA61704700000010024008
:1028400029B1064A92690243044B9A6104E0034AA3
:1028500092698243014B9A61704700000010024068
:1028600001490860704700000000424201490860C9
:1028700070470000D800424221B1028842F0400275
:10288000028004E002884FF6BF731A40028070474E
:102890000246002013890B4201D0012000E00020F5
:1028A00070470146888970478181704710B50022C2
:1028B000028802F441520B884C8823438C882343BE
:1028C000CC8823430C8923434C8923438C8923439D
:1028D000CC8923431A430280838B4FF2FF74234039
:1028E00083830B8A038210BD7047000070B50446D5
:1028F0000D46AA200D4908704870EF20887002200C
:10290000C870084604714D710026002005E0074993
:10291000095C3144CEB2411CC8B20628F7DB03483B
:102920008671082100F004F870BD000063080020E3
:1029300070B505460C4621460348FFF739FD214690
:10294000014800F0E5FB70BD630800204FF6F87108
:102950000140014A11607047505C004030B50146AB
:102960000C4B1A7800200DE0C3B20B4C54F8233006
:1029700048F68F742340C4B22343C4B2064D45F8D1
:102980002430401C9042EFD341F08003024C4C3481
:10299000236030BD68050020005C004010B54A107F
:1029A0005300054A126892B202EBC002121D034C9A
:1029B00044F8123010BD0000505C00400060004040
:1029C00010B502460F48006880B200EBC200801DBF
:1029D0000D4C04EB40033E290BDD481111F01F0F95
:1029E00001D1441EA0B24FF4004444EA80241C608C
:1029F00007E0481011F0010F01D0441CA0B284027E
:102A00001C6010BD505C00400060004010B50A4BD7
:102A100053F820304BF68F7403EA040211F4805F00
:102A200001D082F4805211F4005F01D082F4005290
:102A3000014B43F8202010BD005C0040074A52F8CB
:102A400020204BF68F7302EA030181F4805181F458
:102A50000051024A42F8201070470000005C00401C
:102A600010B54A105300044A126892B202EBC00239
:102A7000024C44F8123010BD505C00400060004031
:102A8000044A126892B202EBC002921C024B43F855
:102A900012107047505C00400060004010B50A4BB7
:102AA00053F8203048F6BF7403EA040211F0100F07
:102AB00001D082F0100211F0200F01D082F020022C
:102AC000014B43F8202010BD005C0040074A52F83B
:102AD000202048F6BF7302EA030181F0100181F063
:102AE0002001024A42F8201070470000005C0040BC
:102AF000054A52F8202048F68F131A400A43024B29
:102B000043F8202070470000005C004010B500F042
:102B100001F810BD0CB5002001900090324800680B
:102B200040F480303049086000BF2F48006800F44E
:102B3000003000900198401C0190009818B901984D
:102B4000B0F5A06FF1D12848006810F4003F02D022
:102B50000120009001E0002000900098012842D15F
:102B60002248006840F010002049086008460068CC
:102B700020F0030008600846006840F0020008608A
:102B80001948406818494860084640684860084647
:102B9000406840F4806048600846406820F47C103B
:102BA00048600846406840F4E810486008460068FD
:102BB00040F08070086000BF0B48006810F0007F94
:102BC000FAD00948406820F00300074948600846E9
:102BD000406840F00200486000BF0348406800F0D1
:102BE0000C000828F9D10CBD001002400020024062
:102BF00010B50020FFF73AFE0121C805FFF710FECF
:102C000010BD000010B5024606480068438A32B97C
:102C10008888C01A034C24682082002010BD0868F0
:102C20001844FBE71006002010B503F0AFFF10BDFD
:102C300010B51348006840F00100114908600846CB
:102C40004068104908400E494860084600680E492F
:102C500008400B4908600846006820F4802008609E
:102C60000846406820F4FE0048604FF41F0088606A
:102C7000FFF74CFF4FF000600449086010BD0000F2
:102C8000001002400000FFF8FFFFF6FE08ED00E034
:102C900021B1028842F08002028004E002884FF6EF
:102CA0007F731A400280704721B1028842F001020E
:102CB000028004E002884FF6FE731A4002807047DB
:102CC00070B5002400220023058C4FF6FE763540B7
:102CD0000584028C8388048B4FF68F752C40B51EBB
:102CE0002C400D882C43751E2A400D892A434D889F
:102CF0002A43144DA8420BD0134DA84208D0134DBF
:102D0000A84205D0124DA84202D0124DA84213D1BC
:102D10004FF6F7752A404D892A434FF6FB752A4036
:102D20008D882A434FF6FF652B404FF6FF552B4009
:102D30008D892B43CD892B4383800483CD88858661
:102D4000028470BD002C014000340140004001406D
:102D500000440140004801400A460021018B4FF623
:102D6000F7731940114301837047000070B50024C8
:102D700000220023058C4FF6EF7635400584028C47
:102D80008388048B48F6FF752C404FF6FF452C4096
:102D90000D884FF6FF7606EA05252C434FF6DF75C2
:102DA0002A400D8906EA05152A434D8806EA0515CD
:102DB0002A43154DA84202D0144DA8421DD14FF60A
:102DC0007F752A404D894FF6FF7606EA05152A439E
:102DD0004FF6BF752A408D8806EA05152A434FF63F
:102DE000FF352B404FF2FF752B408D8906EA850594
:102DF0002B43CD8906EA85052B4383800483CD8848
:102E00000587028470BD0000002C014000340140A1
:102E10000A460021018B4FF2FF7319404FF6FF73F2
:102E200003EA0223194301837047000070B50024B0
:102E300000220023058C4FF6FF6635400584028C86
:102E40008388848B4FF68F752C404FF6FC752C4091
:102E50000D882C434FF6FF552A400D894FF6FF761B
:102E600006EA05252A434D8806EA05252A43154D1D
:102E7000A84202D0144DA8421DD14FF2FF752A403E
:102E80004D894FF6FF7606EA05252A434FF6FF35B2
:102E90002A408D8806EA05252A434EF6FF752B4009
:102EA0004DF6FF752B408D8906EA05152B43CD891C
:102EB00006EA05152B4383808483CD8885870284A9
:102EC00070BD0000002C0140003401400A46002182
:102ED000818B4FF6F77319401143818370470000CF
:102EE00070B5002200230024058C4EF6FF76354095
:102EF0000584038C8488828B48F6FF752A404FF640
:102F0000FF452A400D884FF6FF7606EA05252A433D
:102F10004DF6FF752B400D8906EA05352B434D888C
:102F200006EA05352B430B4DA84202D00A4DA842B4
:102F300008D14BF6FF752C408D894FF6FF7606EAD7
:102F400085152C4384808283CD88A0F8405003846B
:102F500070BD0000002C0140003401400A460021F1
:102F6000818B4FF2FF7319404FF6FF7303EA022380
:102F70001943818370470000002202881D4B98424C
:102F80000ED01D4B98420BD0B0F1804F08D01B4B98
:102F9000984205D01A4B984202D01A4B984204D15D
:102FA0004FF68F731A404B881A43174B984207D03D
:102FB000164B984204D04FF6FF431A40CB881A4371
:102FC00002808B8883850B8803850A4B98420BD03F
:102FD000094B984208D00E4B984205D00D4B9842B1
:102FE00002D00D4B984201D10B7A038601238382D4
:102FF00070470000002C01400034014000040040F4
:1030000000080040000C0040001000400014004088
:10301000004001400044014000480140704700006A
:1030200010B5044601210420FFF70AFC3CB110480A
:10303000006880B220F002000D49086016E00C48DC
:10304000006880B240F00200094908600948006841
:1030500020F47F20074908600846006840F44C309F
:10306000086089140348001FFEF77FFE10BD0000B2
:10307000405C0040040801407047000010B5FFF7B5
:10308000FBFF00F031F8FFF7B3FD00F00FF8002070
:1030900005490870FFF7C4FF642001F049FD0120D5
:1030A000FFF7BEFF10BD00006605002010B5084800
:1030B0000849086002200968087207480749086043
:1030C000074808490860054909680868804710BD35
:1030D0009C0D0020100600206C0500201406002026
:1030E0009C0500201C06002008B514208DF8000067
:1030F00001208DF8010000208DF8020001208DF8DC
:1031000003006846FFF7A8F908BD00BFFEE700000E
:1031100070B5024600200AE0145C064B1D781B784F
:103120005B1C044E3370044B5C55431CD8B2884280
:10313000F2DB70BD3A0100205C0C002010B56D4838
:1031400000786D490978884263DD6A4800786A49E9
:103150000978401A3F281FDB0020684908703F208B
:103160006749087000200BE063490A780978491C18
:10317000614B197063498A5C614B411C5A54C8B257
:103180003F28F1DB40224FF48C715D4800F0BEF81F
:103190000220FFF79BFCABE058480078401C5749E1
:1031A000087008460078584909788842F3D1002011
:1031B000524908704F4800784F490978401A5049E1
:1031C0000870002015E04B4909784B4A1278891A9B
:1031D000814208DD4849097801444A4A525C484B1B
:1031E000411C5A5403E00022454B411C5A54411CD7
:1031F000C8B23F28E7DB3F4800783F4908704022CB
:103200004FF48C713E4800F081F80220FFF75EFC1D
:103210006EE03848007838490978884268DA3648DC
:103220000078C0F580703349097808443F281FDBD7
:103230000020324908703F203149087000200BE01F
:103240002D490A780978491C2B4B19702D498A5C45
:103250002B4B411C5A54C8B23F28F1DB40224FF49B
:103260008C71274800F052F80220FFF72FFC3FE056
:1032700022480078401C21490870084600782249FD
:103280000978884234D100201C4908701A48007817
:10329000404218490978084419490870002018E08C
:1032A00015490978C1F58071124A1278114481429A
:1032B00009DD114909780144C9B2124A525C104B28
:1032C000411C5A5403E000220D4B411C5A54411C2E
:1032D000C8B23F28E4DB074800780749087040225D
:1032E0004FF48C71064800F011F80220FFF7EEFB56
:1032F00010BD00003A010020390100203B010020F0
:103300005C0D00205C0C002038010020F0B5144654
:1033100004F1010C4FEA6C07DFF824C00CEB410309
:103320003D460AE00678401C90F800C046EA0C22B0
:1033300023F8022B9B1C401C6D1E002DF2D1F0BD0A
:1033400000600040490050EAC12018BF04204A0D27
:1033500018BF40F0010040F2FF72B2EB515F08BFAE
:1033600040F00200012808BF052070474100080214
:1033700018BF04200A0E18BF40F001004FF07F4232
:1033800032EA010108BF40F00200012808BF052011
:1033900070472DE9F0414F1E00EBC7010446D1E90B
:1033A000000115461E4637F006020DD02A46334668
:1033B00004F0AAF87F1E04EBC703D3E9002303F04F
:1033C0009BFE37F00602F1D1022F25D0042F13D037
:1033D000062F18BFBDE8F0812A46334604F094F862
:1033E000D4E90A2303F088FE2A46334604F08CF819
:1033F000D4E9082303F080FE2A46334604F084F81B
:10340000D4E9062303F078FE2A46334604F07CF81C
:10341000D4E9042303F070FE2A46334604F074F81E
:10342000D4E9022303F068FE2A46334604F06CF820
:10343000D4E90023BDE8F04103F05EBE024A00205B
:10344000110705F004B8000001FDFFFF6FF05E01F9
:10345000080705F02AB800002DE9FC5F7A480078DB
:1034600018B97A480068BDE8FC9F00247848806954
:1034700077494969884201D10020F4E7754800780E
:103480000D30072190FBF1F201FB1200704951F859
:10349000201070480078C01D072290FBF2F302FB59
:1034A00013006B4A52F82000A1EB0008404604F0DC
:1034B0001FFD074667480078C01D072190FBF1F209
:1034C00001FB1200644951F82090624800780D30E9
:1034D000072190FBF1F201FB12005F4951F820A097
:1034E0004946504604F00CFF80465C4904F048FD14
:1034F0000646394604F082FB0546564800780C30F3
:10350000072190FBF1F201FB1200514951F8201004
:10351000504800780830072290FBF2F302FB1300BA
:103520004B4A52F82000A1EB0009484604F0E0FCA9
:103530000746484800780830072190FBF1F201FB6C
:103540001200454951F820A0424800780C3007216C
:1035500090FBF1F201FB12003F4951F820B05146B7
:10356000584604F0CDFE81464FF0834104F008FD3B
:103570008046394604F042FB0646364800780B3058
:10358000072190FBF1F201FB1200314951F82010A4
:10359000304800780930072290FBF2F302FB130059
:1035A0002B4A52F82000A1EB0009484604F0A0FC89
:1035B0000746284800780930072190FBF1F201FB0B
:1035C0001200254951F820A0224800780B3007212D
:1035D00090FBF1F201FB12001F4951F820B0514657
:1035E000584604F08DFE81461D4904F0C9FC804612
:1035F000394604F003FB3146009004F08BFA29466B
:10360000019004F087FA04464FF08441204604F00C
:10361000F5FA0446204620F00041C1F1FF41C90FF0
:1036200049B900BF4FF07F41B1EB400F01D10121FB
:1036300000E0002101B10024002003490870034884
:10364000046020460FE700008C000020900000205E
:10365000A40700208D000020C00700200000C0400B
:103660000000204170B50346124C207808B90622AC
:1036700001E0441EE2B2104C54F822408C4200D1CA
:1036800070BD0D4C44F820100A4C25782478641C39
:10369000084E3470094C44F8253034462478072C01
:1036A00002DB002435462C700124054D2C7000BF30
:1036B000E6E700008D000020A4070020C0070020DE
:1036C0008C000020034800780A2801DB01207047A5
:1036D0000020FCE7940000202DE9F05F07463E48FB
:1036E000D0F864803D48007830B100203C49C1F8F2
:1036F000CC003A4908702BE04146384604F000FE01
:103700008346384904F008FC01D236480EE04146B1
:10371000384604F0F5FD8346334904F0FDFC01D240
:10372000314803E04146384604F0EAFD81462F491E
:1037300004F026FC06462A48D0F8CC102C4804F0A9
:103740001FFC8246314604F0E5F92549C1F8D40052
:10375000234AD2F8D410D2F8E80004F011FC06464F
:1037600004F042FB05461E49D1F8D80004F03CFBAA
:1037700004461B4988681F4904F0C2FD81461E4962
:1037800001F084FD0646002104F0FAFA11D0002C65
:1037900006DD1349D1F8CC00002104F0BDFB08D3AD
:1037A000002C10DA0E49D1F8CC00002104F0B4FC52
:1037B00009D20B49D1F8CC00104900F0EFFB0646C6
:1037C00004F012FB0446281904F04AFB0449C1F82E
:1037D000DC00BDE8F09F000008000020FB00002096
:1037E000240900200000FAC40000FA448FC2753D8D
:1037F000D7A3703F0000FA43000048420AD7A33B1A
:103800000FB593B0139800680E90139840680F900E
:10381000139880681090149800680B901498406872
:103820000C90149880680D901098059001460490B3
:1038300004F0A6FB07900F9803900146029004F055
:103840009FFB05900E9803900146029004F098FBB0
:103850000490059904F05EF90690079904F05AF96E
:10386000FE49089004F0CAF90A904FF07D500A9979
:1038700004F052FB0FD2FA490A9804F04DFB0AD229
:10388000F8480078C0F3400010B9F748119004E000
:10389000F648119001E00020119010980590014623
:1038A000049004F06DFB07900F980390014602907E
:1038B00004F066FB05900E9803900146029004F018
:1038C0005FFB0490059904F025F90690079904F030
:1038D00021F9089001F036FE12900E980890129986
:1038E00004F04EFB0E900F980890129904F048FBDC
:1038F0000F9010980890129904F042FB1090DC4849
:1039000080680590DA4800680490059904F038FB57
:103910000790D748C0680590D5484068049005993D
:1039200004F02EFB0690079904F0EAFC4FF080416A
:10393000089004F025FBCE4908640846C06805904D
:10394000084680680490059904F01AFB0790C8485F
:1039500040680590C64800680490059904F010FB83
:103960000690079904F0D6F84FF08041089004F0D3
:1039700007FBBF4948640846806804900846806891
:103980000390049904F0FCFA0690B948406804904A
:10399000B74840680390049904F0F2FA059006993C
:1039A00004F0B8F84FF08041079004F0E9FA4FF0C6
:1039B0007E51089004F012FCAD4988640846406CC2
:1039C000059010980490059904F0DAFA0790A84839
:1039D000806C05900F980490059904F0D1FA069038
:1039E000079904F08DFC4FF07C51089004F0C8FA60
:1039F0009F4908610846806C05900E9804900599CF
:103A000004F0BEFA07909A48006C05901098049054
:103A1000059904F0B5FA0690079904F071FC4FF08F
:103A20007C51089004F0ACFA914948610846006C5A
:103A300005900F980490059904F0A2FA07908C481D
:103A4000406C05900E980490059904F099FA069040
:103A5000079904F055FC4FF07C51089004F090FA5F
:103A600083498861084600698249069004F088FA13
:103A70000790169904F084FA08907D48C0690146C1
:103A80000790089804F046F87949C86108464069EB
:103A90007849069004F074FA0790169904F070FAC9
:103AA00008907348006A01460790089804F032F8BD
:103AB0006F490862084680696E49069004F060FA12
:103AC0000790169904F05CFA08906948406A01462C
:103AD0000790089804F01EF8654948620846006996
:103AE00001460690119804F04BFA07906048C069AF
:103AF00001460690079804F00DF808900B980146CF
:103B00000790089804F006F80B9059484069014660
:103B10000690119804F034FA07905548006A01465F
:103B20000690079803F0F6FF08900C98014607905E
:103B3000089803F0EFFF0C904D488069014606900D
:103B4000119804F01DFA07904948406A0146069012
:103B5000079803F0DFFF08900D980146079008983A
:103B600003F0D8FF0D900D9803904148C068029073
:103B7000039904F005FA05900C9801903C48806880
:103B80000090019904F0FCF903903948406880F0F6
:103B9000004001900B9801460090019804F0F0F964
:103BA0000290039904F0ACFB0490059904F0A8FB83
:103BB0004FF07C51069004F0E3F90790169904F059
:103BC000DFF908902A48006801460790089803F03A
:103BD000A1FF274908600D9803900846806802906D
:103BE000039904F0CDF905900C9801902048C06825
:103BF0000090019904F0C4F903900B9801901C48BF
:103C000000680090019904F0BBF90290039904F058
:103C100077FB0490059903F07DFF4FF07C510690EF
:103C200004F0AEF90790169904F0AAF9089010482C
:103C3000406801460790089803F06CFF0C49486003
:103C40000D980390084640680290039904F098F993
:103C500005900C980190064800680DE07B14C04266
:103C600048E19A3F000000201F850B401F858B3FD5
:103C7000080000200AD7233C0090019904F080F945
:103C800003900B9801905B48C0680090019904F084
:103C900077F90290039903F03DFF0490059904F031
:103CA0002FFB4FF07C51069004F06AF907901699AB
:103CB00004F066F908904F4880680146079008981C
:103CC00003F028FF4B4988600D9803900846006870
:103CD0000290039904F054F905900C98019045481E
:103CE00040680090019904F04BF9039041488068C6
:103CF00080F0004001900B9801460090019804F07C
:103D00003FF90290039903F005FF0490059903F031
:103D100001FF4FF07C51069004F032F9079016999C
:103D200004F02EF908903348C068014607900898BF
:103D300003F0F0FE2F49C8600846C06805900846A9
:103D4000C0680490059904F01BF907902948806821
:103D50000390284880680290039904F011F90590B7
:103D6000244840680190234840680090019904F07D
:103D700007F903901F48006801901E4800680090F2
:103D8000019904F0FDF80290039903F0C3FE04903A
:103D9000059903F0BFFE0690079903F0BBFE08905B
:103DA00001F0D0FB0990134800680890099904F0CD
:103DB000E7F810490860084640680890099904F03F
:103DC000DFF80C494860084680680890099904F0BB
:103DD000D7F8084988600846C0680890099904F037
:103DE000CFF80449C86001F14C00FEF775FC17B02C
:103DF00000BD0000080000202DE9F0476148C468BC
:103E00006149D1F8C000614904F086F903D25F48E6
:103E10005D49C1F8C0005C49D1F8C000214604F0FA
:103E20006FFA5949C1F8C400D1F8C400584909686B
:103E300004F072F90BD256480168204603F06AFE7E
:103E40005149C1F8C00052480068C1F8C400514847
:103E5000006880F000464C48D0F8C410304604F0AA
:103E60005BF90DD24B480168204604F049FA4649F7
:103E7000C1F8C0004748006880F00040C1F8C400A5
:103E80004149D1F8E000002103F07AFF6ED03E48AE
:103E9000D0F8E0104FF0804004F072F807463A483E
:103EA000D0F8E010384604F06BF8064631463A4840
:103EB000006803F0A3FE054629464FF0804004F059
:103EC0005FF806463048D0F8C410304604F024F8B5
:103ED00017D22D49D1F8C400294604F011FA07463B
:103EE0002D4801684FF0804004F04AF8804639467A
:103EF00004F046F8064602F09FFC2349C1F8C800CA
:103F000038E029464FF0404004F03AF806461E4893
:103F1000D0F8C410304604F0FFF81CD21A48D0F88C
:103F2000C40080F000482946404604F0E9F90746FD
:103F3000194801684FF0804004F022F88146394664
:103F400004F01EF8064602F077FC80F000400E49AF
:103F5000C1F8C8000EE00C4AD2F8E010D2F8C40054
:103F600004F00EF80849C1F8C80003E00020064933
:103F7000C1F8C8000449D1F8C80002F061F9BDE8F1
:103F8000F0870000040800202409002000007A4483
:103F90000001002004010020EC0000202DE9F04188
:103FA00005460C461E49D1F8EC00002103F0E8FE5E
:103FB00033D00021204603F0E3FE2ED01848D0F87D
:103FC000EC10284603F0DCFF0746214603F0D8FF3B
:103FD00006461348D0F8D810304603F09BFD104930
:103FE000C1F8D800D1F8D8000E4903F095FF04D2EB
:103FF0000C480B49C1F8D8000AE00949D1F8D800AB
:10400000094904F089F803D207480549C1F8D800E6
:104010000348D0F8D800BDE8F0810020FBE700009D
:10402000240900200000C8C20000C8422DE9F04762
:1040300080463849486802F0B3FE364988683649F8
:1040400004F05EF98146354901F020F9074632490E
:1040500003F0D4FD0646324903F092FF054631498C
:1040600003F08EFF04462B48416A204603F052FDC0
:1040700028494862486A2C4903F04EFF01D22A4879
:1040800009E02449486A294904F046F801D2274842
:1040900001E02048406A1F49486202F03BF81D4A8F
:1040A000D2F8DC10106803F035FD0446002103F05F
:1040B00033FF01D2002012E0164AD2F8DC1010685B
:1040C00003F028FD04461A4904F026F801D21848E6
:1040D00005E0104AD2F8DC10106803F01BFD0D4912
:1040E000486014494868144903F016FF10D2094982
:1040F0004868124903F044FF04460649086810491D
:1041000003F03EFF0546214603F004FD0149086027
:10411000BDE8F087240900200000FA43000048426F
:1041200000007A430AD7A33B00007AC400007A4417
:104130000000484404080020000070420AD7233CD5
:10414000A4707D3F2DE9F04D904F21F0004A86B0DC
:1041500005460C46BA4530DBAAEB070028430CD0D5
:104160008B48824501DC1CD1DDB106B02846BDE894
:10417000F04D4FF0010204F06AB9864A864B28469A
:1041800003F0C2F907460E46844A854B284621466D
:1041900003F0BAF906B03A463346BDE8F04D02F0F6
:1041A000ABBF0120FCF76AF806B00022BDE8F04D75
:1041B00013461046114603F04FB87A48824542DA5A
:1041C000BAF1795F0BDA2846FFF7BCF8042808BF7C
:1041D000FFF734F9284606B02146BDE8F08D2A469F
:1041E0000B46104603F090F9834602466E480E4691
:1041F0000B4606217844FFF7CCF85A46334603F0C5
:1042000083F9804669488A465A46334604217844F1
:10421000FFF7BFF85A46334603F076F900223B46D3
:1042200002F06AFF02460B464046514603F014F87E
:104230002A46234603F068F906B02A462346BDE81D
:10424000F04D02F059BF284624F0004100223D46BF
:104250003B4603F057FA4FF0FF3204F0F8F80646F9
:10426000024653480F460B4606217844FFF791F863
:1042700032463B4603F048F9CDE900014D4832464D
:104280003B4604217844FFF784F832463B4603F06E
:104290003BF900222B4602F02FFF83460291304665
:1042A000394602F0AFFB804643480D46504517DCC7
:1042B000DDE900015A46029B02F0CEFF42462B4642
:1042C00003F022F942462B4602F016FF012204F0C9
:1042D000BEF8304A304B03F007FB304A304B4CE01D
:1042E0004FF0000A52460B46404602F005FFCDE96A
:1042F000031052462B461046194603F005F9324684
:104300003B4603F0FFF9DDE9033202F0A5FF064664
:104310000F46DDE900015A46029B02F09DFF8346ED
:10432000009101223046394604F091F8194A1A4B9F
:1043300003F0E8F906460F4601224046294604F0FC
:1043400086F85A46009B03F0DFF832463B4603F0FE
:10435000CBFA07460E4601225046294604F077F86C
:104360000E4DDFF858802A46434603F0CBF93A4613
:10437000334603F0C7F92A46434603F0C3F9002C3D
:10438000D8BF81F0004106B0BDE8F08D0000F03FDD
:104390000000F07F075C143326A6913C182D44548E
:1043A000FB21F93F0000E03FB8430000CE4300008E
:1043B00042430000584300003333EF3FFB21E93F05
:1043C0002DE9FE4304465A48007810F0010F04D04E
:1043D00057480078C0F3400050BB5648406D5649DE
:1043E00008625648C068486200215348C16581652B
:1043F0004165002052498860486008604E49C1F814
:10440000D80050498880488008804948407820F08A
:104410004000474948700846007810F0010F05D168
:10442000002045490860486002F01EFABDE8FE839E
:104430004149C868444903F063FF0746434900F017
:1044400025FF0646424903F09BFD05463E4903F021
:10445000D5FB3949886108693B4903F051FF07469C
:104460003A4900F013FF06463A4903F089FD054634
:10447000354903F0C3FB3049C8613749B1F906102B
:10448000A1F5FA7003F0ECFC8146344900F0FEFE21
:1044900080462D4903F0B2FB0746314903F070FD19
:1044A0000646214603F06CFD05462348016A28466E
:1044B00003F030FB20490862086A02F0CDFD1E4976
:1044C00008621C4AD16C1C4A906903F019FF1A4912
:1044D0000863184A116D184AD06903F011FF164994
:1044E0004863144A516D144A106A03F009FF0546E7
:1044F00002F0B2FD80F000410F488163204601F0D8
:1045000077FD0B484078C0F3801048B10020009040
:104510000190029008494868694601F04BF904E0AF
:10452000054948686C3101F045F900BF7EE700009D
:1045300000000020080000202409002004080020BA
:10454000180A0020E60000200000FA430000204185
:1045500000003442000034C2D0080020000048426D
:104560000000F042002002490870024908707047BC
:1045700094000020950000200146124A1278124B48
:104580001B781A44D0B20A2802DBA0F10A02D0B28A
:104590000E4A42F820100C4A12780A2A05DA0A4A12
:1045A0001278521C084B1A700AE0064A1278521C04
:1045B000044B1A701A4612780A2A01DB00221A707C
:1045C000704700009500002094000020DC070020C8
:1045D00010B50C480078C82805DA0A480078401C55
:1045E000084908700CE00020064908700649486038
:1045F0000648407820F002000449487000F0D2F9E3
:1046000010BD00008800002080070020000000206E
:104610002DE9F04738484078C0F3800040B936486B
:10462000407820F00800083033494870BDE8F08732
:104630003248007888B93248406832490860FEF74D
:104640000BFF3149086001202C4908702A48407846
:1046500020F0080028494870E8E72C492A480068FB
:1046600003F08EFC824627480168504603F052FA58
:10467000814603F0B9FB05462149486803F0B4FBC5
:1046800004461D484078C0F3800038B91A48407885
:1046900020F00800083018494870C7E7281B002898
:1046A00001DD281B00E0601B8046B8F5FA7F01DCC5
:1046B00001260CE0164F404603F0D2FB81463946F6
:1046C00003F02AFC01D8012000E0002006463EB19C
:1046D0000B4840680B490860FEF7BEFE0A490860B7
:1046E0000EB9012000E000200349497860F3C301BE
:1046F0000148417000BF99E70000002098000020A9
:10470000800700209C000020A00000200AD7233C46
:104710009999993D2DE9F04105460F4624480168D5
:104720002846FEF79FFFFFF773FF224800780A280C
:1047300007DC284600F046F91E480078401C1D4959
:1047400008701D484078C0F3C00038B11B49486963
:104750001B4903F015FC1949486120E0194890F8FD
:10476000200030B1284600F02DF90020134948619F
:1047700015E0FEF7A7FF20B1002000F0D9F80446AD
:1047800001E00E4804690D488169204603F0C2F932
:104790000646294603F022FD0849486100BF064845
:1047A0004078C0F3C000074981F82000BDE8F081DF
:1047B00034060020700000200000002004080020C3
:1047C0009FAB653F800700202DE9FF5F81460C46C7
:1047D00000F00EFE05464B4903F0D2FB4A49086142
:1047E00000F000FE0546474903F0CAFB4649486110
:1047F00046484078C0F3400050B98869002103F072
:10480000BFFA11D14049C869002103F0B9FA0BD1B0
:10481000FFF7DEFE3D48407820F004003B49487039
:10482000002004B0BDE8F09F3848407820F0040034
:10483000001D3649487034488169484603F0DEF966
:1048400082463349204603F065F98346504600F01E
:10485000E1FE3049029003F093FB804600F074F9CA
:1048600007464FF07E5103F0B9FC064659462A48E8
:1048700003F086FB3146039003F082FB054627498F
:1048800003F07EFB20490860086820F00041C1F178
:10489000FF41C90F51B91C4908684FF07F41B1EB86
:1048A000400F01D1012100E0002131B117484078CB
:1048B00020F004001549487020E01349086803F00F
:1048C000FDF8074688464FF020411548CDE9021013
:1048D00008461449144B154ACDE9000138464146B3
:1048E00000F02AFD054602F0D5FB0749486007485D
:1048F000407820F00400001D0449487002484068D8
:104900008FE700000AD7233C80070020000000202A
:104910003393884341D3423EA1D819430000C84293
:10492000991934409999B93F8000002078000020FF
:104930000146094800780844C2B20848007881421C
:1049400001DB002070470A2A02DBA2F10A00C2B292
:10495000034850F82200F5E795000020940000205D
:10496000DC0700202DE9F04107460D4616464FF4BE
:1049700000700B490860384601F0CAFF002405E0CA
:10498000FF2001F0C5FF3055601CC4B2AC42F7DB1C
:104990004FF400700249091F0860BDE8F081000073
:1049A000140C014010B50649486800F00BF80448A3
:1049B00040690349886108460069C86110BD00006C
:1049C0008007002010B5044604480461C46000203C
:1049D00002498861FFF7C6FD10BD000004080020F1
:1049E00010B50446FDF740FB48B1054AD16950694E
:1049F000FFF7EAFE024948682146FFF78BFE10BD2B
:104A00008007002070B505460C464FF4007007493A
:104A10000860284601F07CFF204601F079FF4FF442
:104A200000700249091F086070BD0000140C0140AD
:104A30002DE9F05F06460F4614460021384603F084
:104A40006BFA00D8204F0021204603F065FA02D807
:104A50001E48BDE8F09F2146384603F0CFF8804657
:104A6000314603F059FB05D82146304603F0C6F81D
:104A7000054621E039464FF0804003F081FA824636
:104A80003146304603F07CFA8346514603F0B6F8CF
:104A9000804621464FF0804003F072FA834621465B
:104AA00003F06EFA82465146384603F0A7F8814675
:104AB000414603F02FF805460449284603F02CFA36
:104AC00000D2024D2846C4E7000048420000C84218
:104AD00010B510480078D8B10F48D0F8E0200F4842
:104AE00001680F480068FFF7A3FF0E4908600E48F1
:104AF000006880F000440848D0F8E02007480168CA
:104B00002046FFF795FF0949086000200149087019
:104B100010BD0000F800002024090020EC00002057
:104B2000F000002000010020F4000020040100201B
:104B3000044A116800BF034A12680B189A42FAD35C
:104B400070470000340600202DE9F04104464FF084
:104B500019404E49002500EB4400884230D94FF0FF
:104B6000FF4131EA040018D04FF0CE41B1EB440FC1
:104B700084BF4FF07E50BDE8F0814549B1EB440F52
:104B800028BF01251CD20220FBF778FB14F0004F50
:104B90000FD0BDE8F041FEF759BC204614F5000FD8
:104BA00004BF0020BDE8F0810121BDE8F04103F021
:104BB0007CBCBDE8F04161214FF0E04003F075BCE2
:104BC0003449204603F0DCF903F0D8FA804603F0BC
:104BD0000BF906463049404603F0D2F907462F4903
:104BE000404603F0CDF9214603F0F8FA394603F0C8
:104BF00087FB04462A4903F0C3F92A4902F08AFFD9
:104C0000214603F0BDF96FF0414102F083FF2146D8
:104C100003F0B6F9244902F07DFF214603F0B0F914
:104C20000146224806F00304784450F8240003F0BB
:104C3000A7F91F49794451F8241002F06BFF1D4970
:104C4000794451F8241002F065FFB110D5B103F09A
:104C50002CFC04000BD0B4F1FF4F0FD0FEF786FB05
:104C6000042808BFFEF7F2FB2046BDE8F0810220D1
:104C7000FBF704FBBDE8F041FEF7E8BB0220FBF7C1
:104C8000FDFA96E7BDE8F04103F00FBC0000501EAE
:104C90000000A0853BAAB840F4FD05370070313E06
:104CA00012BB2A3D12BB2A3EFFFF7F3FF4390000B2
:104CB000D8390000BC3900002DE9FE4F81468846F6
:104CC0000021484603F05CF806D10021404603F07D
:104CD00057F801D10024A4E00021484603F01CFA53
:104CE00001D2484601E089F0004083460021404659
:104CF00003F012FA01D2404601E088F000408246FB
:104D00005146584603F008F905D25146584602F07C
:104D100075FF074604E05946504602F06FFF07460C
:104D20004149384603F0F8F801D23D462BE04FF0F8
:104D30008741384603F024F94FF07C51019003F08D
:104D4000DFFA0290029803F04FF80646304603F06F
:104D500087F80190029903F041FA0290334850F825
:104D60002650024652F826100346721C53F82200C1
:104D700003F0C6FA0090029903F002F92946019067
:104D800002F0C8FE05465946504603F0C5F920D248
:104D90000021404603F0C0F909D80021484603F03D
:104DA000BBF901D82C463CE085F0004439E0204CAA
:104DB0000021484603F0B0F905D82946204603F003
:104DC0009FFA04462DE02146284603F099FA04464E
:104DD00027E00021484603F09FF911D8154C002127
:104DE000404603F099F905D82946204603F088FA91
:104DF000044616E02946204602F08CFE044610E0E8
:104E00000D4C0021404603F087F905D8294620467D
:104E100002F080FE044604E02946204603F070FAC2
:104E200004462046BDE8FE8F8180803B3C01002087
:104E3000DB0F4940DB0FC93FDB0FC9BF10B523486B
:104E4000C079012806DB00202049C871FDF7AAF9C6
:104E5000FCF720F91D48007A022811DB00201B49CD
:104E6000087201F06BF81A4B00221A49A1F11800E0
:104E7000FEF7C6FC164800F0CDFA1548FFF7A0FA79
:104E80001248407A052809DB00201049487212496F
:104E9000124801F0EDFA104802F054F80B48807AFD
:104EA0000A2805DB0020094988720D48FFF798FDA4
:104EB0000648C07A322807DB00200449C872012066
:104EC00000F082FBFDF7CAFB10BD00003406002095
:104ED0006F12033B400700200AD7A33BC008002005
:104EE0000AD7233C2DE9F84F05460F4614463946AC
:104EF000374803F045F88146294603F041F88046DB
:104F000041464FF07E5002F079FE06463146314868
:104F100003F036F882463146304603F031F88346D6
:104F2000514602F0F7FD80464FF07E5102F0F2FD4F
:104F3000814649464FF07E5002F060FE20603146C7
:104F4000244803F01DF883463146304603F018F834
:104F50005946009002F0DEFD82464FF07E5102F08D
:104F6000D9FD804631461B4803F00AF831460090CF
:104F70004FF0804003F004F88346314603F000F818
:104F80008246009902F0C6FD8146414602F036FE97
:104F9000606031460F4802F0F3FF824631463046EA
:104FA00002F0EEFF8346514602F0B4FD81464FF019
:104FB0007E5102F0AFFD80463146304602F0E0FF00
:104FC0004146009002F01AFEA060BDE8F88F000094
:104FD000DB0FC940000040402DE9F84F07460D4661
:104FE0001446A968606802F0CBFF009069682068E9
:104FF00002F0C6FF8246384602F032FF8346296837
:1050000002F0BEFF8146514602F084FD80460099C1
:1050100003F076F906462068606026603046BDE8F9
:10502000F88F00002DE9F04788B04A4A516A4A4A91
:10503000106B02F0A5FF0646464A116A464AD06A3E
:1050400002F09EFF0746434AD169434A906A02F044
:1050500097FF8046394602F05DFD0546314602F075
:1050600059FD0446002103F04BF90590394A516A75
:10507000394AD06B02F084FF0646364A116A364A36
:10508000906B02F07DFF0746324AD169324A506B7D
:1050900002F076FF8046394602F03CFD0546314677
:1050A00002F038FD0446002103F02AF90690294A4F
:1050B000516A294A906C02F063FF0646254A116A3C
:1050C000254A506C02F05CFF0746224AD169224A09
:1050D000106C02F055FF8046394602F01BFD044675
:1050E000314602F017FD05461C4903F009F9079007
:1050F0004FF0000A28E005A951F82A0002F0DEFC72
:10510000804689464FF020401549CDE902011549F6
:10511000CDE90001144800EBCA03144800EBCA02B1
:105120004046494600F008F906460022104B02F0BE
:10513000EBF9044601F0AEFF07495C3141F82A0063
:105140000AF1010000F0FF0ABAF1030FD3DB08B047
:10515000BDE8F0870C07002008000020CDCC1C41E2
:10516000991934409999B93F6807002050070020E9
:10517000000059402DE9F04780460F4614461D4671
:105180004FF00009207847F820802078401CC0B2FA
:105190002070A84201D100202070002607E057F8B7
:1051A0002610484602F0B6FC8146701CC6B2AE42DC
:1051B000F5DB284602F09CFE82465146484602F046
:1051C0001DFDBDE8F08700002DE9F05F04460E46A6
:1051D00017460021384602F0D3FD06D0294951F880
:1051E0002400002102F0CCFD02D10020BDE8F09F98
:1051F0002449543951F8240020F00041C1F1FF4105
:10520000C90F31B1002500211E48543840F8241040
:105210000BE01C486C3850F82410304603F070F84E
:105220008046394602F0EAFC05461648543850F8E4
:105230002410284603F064F882463946124802F0EA
:1052400069FC83465946384602F0D8FC81465146EF
:1052500002F096FE80460B48543850F82410404621
:1052600002F058FC054607486C3840F824601830B6
:1052700040F82450034951F82400294602F080FEEA
:10528000B4E70000D80900200361023C2DE9F04199
:1052900004460E4686F000472146384602F03CFEA2
:1052A00006D23146204602F037FE01D2002500E04A
:1052B00025462846BDE8F0812DE9F04104460E461A
:1052C00015461A4951F82400314602F059FE80462D
:1052D000294602F055FE07461448543850F8241069
:1052E000384602F017FC1149543941F8240051F8AE
:1052F00024000F4902F010FE01D20D480DE00B49C9
:10530000543951F824000B4902F006FF01D2094834
:1053100003E00648543850F824000449543941F851
:105320002400084650F82400BDE8F081CC09002094
:10533000000048C3000048432DE9F04F8BB0804681
:10534000894692469B4600BFDAE90001CDE9080193
:10535000DBE90001CDE90201DDE9142301F0CCFE17
:1053600006460F4630463946DDE9162301F0C4FEF5
:1053700002460B46CDE902013046394601F06CFF8A
:10538000CDE9040140464946DDE9082302F0ACFAC4
:10539000CDE90001DDE9042302F0B6F8CDE9020110
:1053A000DDE9082301F0A8FE04460D4600200C4963
:1053B000DDE9042302F098FA32463B46CDE90201CA
:1053C00002F0A2F8CDE90601DDE90601CBE9000112
:1053D000CAE90045204629460BB0BDE8F08F000021
:1053E0000000F03F014800687047000034010020D1
:1053F00001480068704700003001002070B5044685
:105400000D46034951F82400294602F0B9FD70BD4C
:10541000C00900202DE9F041044643480078C0F35C
:10542000401048B940484078C0F3400020B93E4899
:105430004078C0F3800008B9BDE8F081FFF7F2FDC5
:105440003A4948694FF07E5102F09AFD07463849C3
:1054500002F0D4FB0646214602F092FD0546334891
:105460000168284602F056FB304908604869314916
:1054700002F086FD0746304902F0C0FB0646214691
:1054800002F07EFD054629484168284602F042FBAD
:10549000264948604869274902F072FD07462749B6
:1054A00002F0ACFB0646214602F06AFD05461F48A5
:1054B0008169284602F02EFB1C4988610A46116862
:1054C0001F4A506E02F026FB0546214602F058FDA9
:1054D0001649886088684FF07C5102F051FD0746FC
:1054E00012484168384602F015FB0646214602F094
:1054F00047FD05460D480169284602F00BFB0B49A4
:1055000008610A469168506802F004FB0749486048
:105510000A469169106902F0FDFA0449C8600869F9
:10552000FFF72AF800BF87E70000002004080020EA
:1055300000802B42000040400000444100006040D9
:10554000080000202DE9F04704464FF07C5120462A
:1055500002F016FD814625462E460C48A0EB660655
:1055600035462946484602F00BFD8246294602F0A0
:1055700007FD80464FF07F5102F030FE0746294676
:1055800002F0FEFC05462846BDE8F087DF59375F8C
:1055900008B501210820FDF753F94FF4F070ADF87C
:1055A000000010208DF8030003208DF802006946EA
:1055B0000448FCF751FB4FF4F0710248FCF7D7FBAD
:1055C00008BD0000000C0140B0B110490988491C19
:1055D0000E4A118011460988142915DBC0210C4A96
:1055E00011600A49098816290EDBC021121D1160BD
:1055F0000021064A118007E00021044A11804FF47F
:10560000F071034A121D1160704700000E01002066
:10561000100C01402DE9F0410026A0F50001B1F188
:10562000FE4F22D34FF07F42B2EB400F04D2BDE8D1
:10563000F041012102F039BFB0F1FF4F08BFBDE8D2
:10564000F081B0F1004F08D90120FAF717FEBDE84C
:10565000F0410021084602F0D1BA30F000415ED09E
:105660006FF01606172102F020FF00F500226FF000
:105670007E0101EBE251C2F3025477184FF07E52E3
:10568000A0EBC15602EB045557EA040050D029465E
:10569000304602F03FFA80462946304602F030FE9E
:1056A000414602F0ABFA0546014602F069FC80462D
:1056B000334902F065FC334902F02CFA06464146B4
:1056C000284602F05DFC314602F05AFC0646384698
:1056D00002F0C6FB07462C4902F052FC2B497944E4
:1056E00051F8241002F016FA314602F013FA064679
:1056F0000121284602F0D9FE314602F00BFA054698
:105700003846234902F03CFC2249794451F82410E0
:1057100002F000FA2946BDE8F04102F0FBB9022090
:10572000FAF7ACFDBDE8F04100211B4802F066BA73
:105730004FF07E51304602F0E3FD0546174902F076
:105740001FFC174902F0E6F9294602F019FC154939
:1057500002F0E0F9294602F013FC6FF0824102F0FA
:10576000D9F904462946084602F00AFC214602F00F
:1057700007FC01462846BDE8F04102F0CBB9000025
:1057800066F1CC3EAAAA2A3FF4FD05386E2F000030
:105790000070313F222F0000000080BF21ED423E0B
:1057A0000A1180BEC1ABAA3E01F0A4F901E0FFF7E7
:1057B00045FBFCE72DE9FE4F06460D4600243DE083
:1057C000884931F9140002F04BFB804655F824104B
:1057D00002F004FD074602F007FB00B210F1320FA1
:1057E00002DA6FF031001FE07E4931F9140002F057
:1057F00037FB804655F8241002F0F0FC074602F013
:10580000F3FA00B2322801DD32200DE0754931F99A
:10581000140002F025FB804655F8241002F0DEFC4F
:10582000074602F0E1FA00B26E4931F8141008445C
:1058300000B26C4921F81400601CC4B2032CBFDB19
:105840006849B1F9040002F00BFB82466549B1F9E1
:10585000020002F005FB83466249B1F9000002F044
:10586000FFFA3146009002F055F98146594602F0A0
:1058700051F98046514602F04DF9074602F0B4FA5C
:1058800000B2ADF804005749B1F9040002F0E8FA9B
:1058900054490090B1F9020002F0E2FA82465149FF
:1058A000B1F9000002F0DCFA8346314602F032F929
:1058B0008146514602F024FD8046009902F020FD09
:1058C000074602F091FA00B2ADF806004549B1F979
:1058D000040002F0C5FA43490090B1F9020002F059
:1058E000BFFA82463F49B1F9000002F0B9FA834697
:1058F000314602F073FC8146514602F001FD8046BC
:10590000009902F007F9074602F06EFA00B2ADF80E
:1059100008003449B1F9040002F0A2FA31490090BC
:10592000B1F9020002F09CFA82462E49B1F900005A
:1059300002F096FA8346314602F050FC8146514609
:1059400002F0E8F88046009902F0DAFC074602F01F
:105950004BFA00B2ADF80A00002433E02248007888
:10596000C0F38100B0B901A830F91400002801DAB1
:1059700000200BE001A830F91400B0F57A7F02DDB9
:105980004FF47A7002E001A830F91400174921F8A9
:10599000140015E001A830F91400962801DA9621C8
:1059A0000BE001A830F91400B0F57A7F02DD4FF466
:1059B0007A7102E001A830F914100C4820F8141094
:1059C000601CC4B2042CC9DB0748007810F0010F3A
:1059D00003D0064800F041FF02E0002000F044FF41
:1059E000BDE8FE8FE6000020000000204C090020EA
:1059F00010B50446012006490860382000F088FFF1
:105A0000204600F085FF01200149091F086010BDF4
:105A1000140C014010B504460120064908606B20B3
:105A200000F076FF204600F073FF01200149091FB6
:105A3000086010BD140C014010B504460120064951
:105A400008606A2000F064FF204600F061FF01203A
:105A50000149091F086010BD140C01401FB5012148
:105A60000820FCF7EDFE01210846FCF7E9FE0120C5
:105A7000ADF80C0003208DF80E0010208DF80F00FB
:105A800003A91948FCF7E8F801211748FCF76FF95A
:105A90001020ADF80C0028208DF80F0003A9134842
:105AA000FCF7DAF804210020FCF7B6F8102001908A
:105AB00000208DF8080008208DF8090001208DF8DD
:105AC0000A0001A8FBF792FF0A208DF800000220CF
:105AD0008DF8010001208DF802008DF80300684662
